{"hash":"79dbd5a0affa47cc0a0ca1f1007a391d96485eff66912f702a2aed3a6861c0b5","mtime":1537781708,"version":2,"inputs":[{"prevout":{"hash":"0e15eea11c5543d2b888f93898bc79128da35470ee81343faa445884d45906c8","index":2},"script":"4830450221008789171ea4d8c54dba8cc5966d2226b9ad15ce0abb91f89de8f2e1da901c3c4402207314112fec567643c9a88ff10b1fece26d9c88b626bbd88e616087f2888bddf5412102ee54b94cd26cd137269b3f1f7f85d69d7d5a56429c646f840197a63aea41009a","sequence":4294967294,"address":"bchtest:qr98xw6ucdnganv9af2yt29u0jnfmame6vmu4pzwvg"}],"outputs":[{"value":109455603,"script":"76a9143079ab1a27124082a321b4da5f3d907cfa88764188ac","address":"bchtest:qqc8n2c6yufypq4ryx6d5heajp704zrkgy2u0afsx3"},{"value":1000,"script":"76a914f63d56000178acc9b6d7609d0adf5f21cb245e2188ac","address":"bchtest:qrmr64sqq9u2ejdk6asf6zkltusukfz7yysf52glwg"},{"value":0,"script":"6a4d160a7b303a202730303030303030303030303030303435643862653562626338656464353434316533343430393331343838393763346633653230363362666634353538653434272c20313a202730303030303030303030303030303435643862653562626338656464353434316533343430393331343838393763346633653230363362666634353538653434272c20323a202730303030303030303030303030303435643862653562626338656464353434316533343430393331343838393763346633653230363362666634353538653434272c20333a202730303030303030303030303030303435643862653562626338656464353434316533343430393331343838393763346633653230363362666634353538653434272c20343a202730303030303030303030303030303435643862653562626338656464353434316533343430393331343838393763346633653230363362666634353538653434272c20353a202730303030303030303030303030303435643862653562626338656464353434316533343430393331343838393763346633653230363362666634353538653434272c20363a202730303030303030303030303030303435643862653562626338656464353434316533343430393331343838393763346633653230363362666634353538653434272c20373a202730303030303030303030303030303435643862653562626338656464353434316533343430393331343838393763346633653230363362666634353538653434272c20383a202730303030303030303030303030303435643862653562626338656464353434316533343430393331343838393763346633653230363362666634353538653434272c20393a202730303030303030303030303030303435643862653562626338656464353434316533343430393331343838393763346633653230363362666634353538653434272c2031303a202730303030303030303030303030303435643862653562626338656464353434316533343430393331343838393763346633653230363362666634353538653434272c2031313a202730303030303030303030303030303435643862653562626338656464353434316533343430393331343838393763346633653230363362666634353538653434272c2031323a202730303030303030303030303030303435643862653562626338656464353434316533343430393331343838393763346633653230363362666634353538653434272c2031333a202730303030303030303030303030303435643862653562626338656464353434316533343430393331343838393763346633653230363362666634353538653434272c2031343a202730303030303030303030303030303435643862653562626338656464353434316533343430393331343838393763346633653230363362666634353538653434272c2031353a202730303030303030303030303030303435643862653562626338656464353434316533343430393331343838393763346633653230363362666634353538653434272c2031363a202730303030303030303030303030303435643862653562626338656464353434316533343430393331343838393763346633653230363362666634353538653434272c2031373a202730303030303030303030303030303435643862653562626338656464353434316533343430393331343838393763346633653230363362666634353538653434272c2031383a202730303030303030303030303030303435643862653562626338656464353434316533343430393331343838393763346633653230363362666634353538653434272c2031393a202730303030303030303030303030303435643862653562626338656464353434316533343430393331343838393763346633653230363362666634353538653434272c2032303a202730303030303030303030303030303435643862653562626338656464353434316533343430393331343838393763346633653230363362666634353538653434272c2032313a202730303030303030303030303030303435643862653562626338656464353434316533343430393331343838393763346633653230363362666634353538653434272c2032323a202730303030303030303030303030303435643862653562626338656464353434316533343430393331343838393763346633653230363362666634353538653434272c2032333a202730303030303030303030303030303435643862653562626338656464353434316533343430393331343838393763346633653230363362666634353538653434272c2032343a202730303030303030303030303030303435643862653562626338656464353434316533343430393331343838393763346633653230363362666634353538653434272c2032353a202730303030303030303030303030303435643862653562626338656464353434316533343430393331343838393763346633653230363362666634353538653434272c2032363a202730303030303030303030303030303335333162386537373965643531353966363930396530343736313732363738653233383564626236396363393138396364272c2032373a202730303030303030303030303030303165363030376531343735306631383063636433633661663531353361303666346562373364383634663565623463653530272c2032383a202730303030303030303030303030303033386462336632373833336161373139613665323265303265643764643637303134636232323638376635383866316136272c2032393a202730303030303030303030303030303033386462336632373833336161373139613665323265303265643764643637303134636232323638376635383866316136272c2033303a202730303030303030303030303030303033386462336632373833336161373139613665323265303265643764643637303134636232323638376635383866316136272c2033313a202730303030303030303030303030303030313864336334616561313439323062666638323439383437663331383539616265336436343536383635316530663135272c2033323a202730303030303030303030303030303030313864336334616561313439323062666638323439383437663331383539616265336436343536383635316530663135272c2033333a202730303030303030303030303030303030313864336334616561313439323062666638323439383437663331383539616265336436343536383635316530663135272c2033343a202730303030303030303030303030303030313864336334616561313439323062666638323439383437663331383539616265336436343536383635316530663135272c2033353a202730303030303030303030303030303030313864336334616561313439323062666638323439383437663331383539616265336436343536383635316530663135277d","address":null}],"locktime":0,"hex":"0200000001c80659d4845844aa3f3481ee7054a38d1279bc9838f988b8d243551ca1ee150e020000006b4830450221008789171ea4d8c54dba8cc5966d2226b9ad15ce0abb91f89de8f2e1da901c3c4402207314112fec567643c9a88ff10b1fece26d9c88b626bbd88e616087f2888bddf5412102ee54b94cd26cd137269b3f1f7f85d69d7d5a56429c646f840197a63aea41009afeffffff03f3288606000000001976a9143079ab1a27124082a321b4da5f3d907cfa88764188ace8030000000000001976a914f63d56000178acc9b6d7609d0adf5f21cb245e2188ac0000000000000000fd1a0a6a4d160a7b303a202730303030303030303030303030303435643862653562626338656464353434316533343430393331343838393763346633653230363362666634353538653434272c20313a202730303030303030303030303030303435643862653562626338656464353434316533343430393331343838393763346633653230363362666634353538653434272c20323a202730303030303030303030303030303435643862653562626338656464353434316533343430393331343838393763346633653230363362666634353538653434272c20333a202730303030303030303030303030303435643862653562626338656464353434316533343430393331343838393763346633653230363362666634353538653434272c20343a202730303030303030303030303030303435643862653562626338656464353434316533343430393331343838393763346633653230363362666634353538653434272c20353a202730303030303030303030303030303435643862653562626338656464353434316533343430393331343838393763346633653230363362666634353538653434272c20363a202730303030303030303030303030303435643862653562626338656464353434316533343430393331343838393763346633653230363362666634353538653434272c20373a202730303030303030303030303030303435643862653562626338656464353434316533343430393331343838393763346633653230363362666634353538653434272c20383a202730303030303030303030303030303435643862653562626338656464353434316533343430393331343838393763346633653230363362666634353538653434272c20393a202730303030303030303030303030303435643862653562626338656464353434316533343430393331343838393763346633653230363362666634353538653434272c2031303a202730303030303030303030303030303435643862653562626338656464353434316533343430393331343838393763346633653230363362666634353538653434272c2031313a202730303030303030303030303030303435643862653562626338656464353434316533343430393331343838393763346633653230363362666634353538653434272c2031323a202730303030303030303030303030303435643862653562626338656464353434316533343430393331343838393763346633653230363362666634353538653434272c2031333a202730303030303030303030303030303435643862653562626338656464353434316533343430393331343838393763346633653230363362666634353538653434272c2031343a202730303030303030303030303030303435643862653562626338656464353434316533343430393331343838393763346633653230363362666634353538653434272c2031353a202730303030303030303030303030303435643862653562626338656464353434316533343430393331343838393763346633653230363362666634353538653434272c2031363a202730303030303030303030303030303435643862653562626338656464353434316533343430393331343838393763346633653230363362666634353538653434272c2031373a202730303030303030303030303030303435643862653562626338656464353434316533343430393331343838393763346633653230363362666634353538653434272c2031383a202730303030303030303030303030303435643862653562626338656464353434316533343430393331343838393763346633653230363362666634353538653434272c2031393a202730303030303030303030303030303435643862653562626338656464353434316533343430393331343838393763346633653230363362666634353538653434272c2032303a202730303030303030303030303030303435643862653562626338656464353434316533343430393331343838393763346633653230363362666634353538653434272c2032313a202730303030303030303030303030303435643862653562626338656464353434316533343430393331343838393763346633653230363362666634353538653434272c2032323a202730303030303030303030303030303435643862653562626338656464353434316533343430393331343838393763346633653230363362666634353538653434272c2032333a202730303030303030303030303030303435643862653562626338656464353434316533343430393331343838393763346633653230363362666634353538653434272c2032343a202730303030303030303030303030303435643862653562626338656464353434316533343430393331343838393763346633653230363362666634353538653434272c2032353a202730303030303030303030303030303435643862653562626338656464353434316533343430393331343838393763346633653230363362666634353538653434272c2032363a202730303030303030303030303030303335333162386537373965643531353966363930396530343736313732363738653233383564626236396363393138396364272c2032373a202730303030303030303030303030303165363030376531343735306631383063636433633661663531353361303666346562373364383634663565623463653530272c2032383a202730303030303030303030303030303033386462336632373833336161373139613665323265303265643764643637303134636232323638376635383866316136272c2032393a202730303030303030303030303030303033386462336632373833336161373139613665323265303265643764643637303134636232323638376635383866316136272c2033303a202730303030303030303030303030303033386462336632373833336161373139613665323265303265643764643637303134636232323638376635383866316136272c2033313a202730303030303030303030303030303030313864336334616561313439323062666638323439383437663331383539616265336436343536383635316530663135272c2033323a202730303030303030303030303030303030313864336334616561313439323062666638323439383437663331383539616265336436343536383635316530663135272c2033333a202730303030303030303030303030303030313864336334616561313439323062666638323439383437663331383539616265336436343536383635316530663135272c2033343a202730303030303030303030303030303030313864336334616561313439323062666638323439383437663331383539616265336436343536383635316530663135272c2033353a202730303030303030303030303030303030313864336334616561313439323062666638323439383437663331383539616265336436343536383635316530663135277d00000000"}